:100000000C9446000C945D000C945D000C945D0013
:100010000C945D000C945D000C945D000C945D00EC
:100020000C945D000C945D000C945D000C945D00DC
:100030000C945D000C945D000C945D000C945D00CC
:100040000C945D000C945D000C945D000C945D00BC
:100050000C945D000C945D000C945D000C945D00AC
:100060000C945D000C945D000C945D000C945D009C
:100070000C945D000C945D000C945D000C945D008C
:100080000C945D000C945D000C945D0011241FBE67
:10009000CFEFD0E4DEBFCDBF11E0A0E0B1E0E0E003
:1000A000F2E000E00BBF02C007900D92AE30B10746
:1000B000D9F70E9499000C94FE000C940000CF9395
:1000C000DF9300D01F92CDB7DEB789837B836A832D
:1000D00089818A3031F48A819B81BC018DE00E9444
:1000E0005F0080EC90E0FC018081882F90E08072BE
:1000F0009927892BB1F386EC90E02981FC012083BC
:1001000080E090E00F900F900F90DF91CF910895D5
:10011000CF93DF93CDB7DEB78AE790E02AE730E0F0
:10012000F9012081206EFC0120830000DF91CF9136
:100130000895CF93DF93CDB7DEB727970FB6F89426
:10014000DEBF0FBECDBF81E290E0FC01108282E2F3
:1001500090E02FEFFC01208387E290E02FEFFC017D
:10016000208388E290E0FC0110828AE290E02FEF89
:10017000FC0120838BE290E0FC0110820E94880049
:100180008FE390E09D838C8388E790E0FC01808181
:1001900091819F838E838FEF89831B821A8224C073
:1001A0008A819B81AC014F5F5F4F8C819D81489F0D
:1001B0009001499F300D589F300D11248E819F81F1
:1001C0008217930760F081E090E00A8002C0880FF8
:1001D000991F0A94E2F7982F8981891B89838A8164
:1001E0009B8101969B838A838A819B810897C0F2B9
:1001F00088E290E02981FC012083C6CFF894FFCFEC
:0E02000000000002000000005F00000000008F
:00000001FF
